{
  "contractName": "Crud",
  "abi": [
    {
      "constant": true,
      "inputs": [
        {
          "internalType": "uint256",
          "name": "",
          "type": "uint256"
        }
      ],
      "name": "files",
      "outputs": [
        {
          "internalType": "uint256",
          "name": "id",
          "type": "uint256"
        },
        {
          "internalType": "string",
          "name": "name",
          "type": "string"
        },
        {
          "internalType": "string",
          "name": "content",
          "type": "string"
        },
        {
          "internalType": "uint256",
          "name": "timestamp",
          "type": "uint256"
        },
        {
          "internalType": "address",
          "name": "owner",
          "type": "address"
        },
        {
          "internalType": "uint256",
          "name": "note",
          "type": "uint256"
        }
      ],
      "payable": false,
      "stateMutability": "view",
      "type": "function"
    },
    {
      "constant": true,
      "inputs": [],
      "name": "nextId",
      "outputs": [
        {
          "internalType": "uint256",
          "name": "",
          "type": "uint256"
        }
      ],
      "payable": false,
      "stateMutability": "view",
      "type": "function"
    },
    {
      "constant": false,
      "inputs": [
        {
          "internalType": "string",
          "name": "name",
          "type": "string"
        },
        {
          "internalType": "string",
          "name": "content",
          "type": "string"
        },
        {
          "internalType": "address",
          "name": "owner",
          "type": "address"
        }
      ],
      "name": "create",
      "outputs": [],
      "payable": false,
      "stateMutability": "nonpayable",
      "type": "function"
    },
    {
      "constant": true,
      "inputs": [
        {
          "internalType": "uint256",
          "name": "id",
          "type": "uint256"
        }
      ],
      "name": "read",
      "outputs": [
        {
          "internalType": "uint256",
          "name": "",
          "type": "uint256"
        },
        {
          "internalType": "string",
          "name": "",
          "type": "string"
        },
        {
          "internalType": "string",
          "name": "",
          "type": "string"
        },
        {
          "internalType": "uint256",
          "name": "",
          "type": "uint256"
        },
        {
          "internalType": "address",
          "name": "",
          "type": "address"
        },
        {
          "internalType": "uint256",
          "name": "",
          "type": "uint256"
        }
      ],
      "payable": false,
      "stateMutability": "view",
      "type": "function"
    },
    {
      "constant": false,
      "inputs": [
        {
          "internalType": "uint256",
          "name": "id",
          "type": "uint256"
        },
        {
          "internalType": "string",
          "name": "name",
          "type": "string"
        },
        {
          "internalType": "string",
          "name": "content",
          "type": "string"
        },
        {
          "internalType": "address",
          "name": "user",
          "type": "address"
        }
      ],
      "name": "update",
      "outputs": [],
      "payable": false,
      "stateMutability": "nonpayable",
      "type": "function"
    },
    {
      "constant": false,
      "inputs": [
        {
          "internalType": "uint256",
          "name": "id",
          "type": "uint256"
        }
      ],
      "name": "destroy",
      "outputs": [],
      "payable": false,
      "stateMutability": "nonpayable",
      "type": "function"
    },
    {
      "constant": true,
      "inputs": [],
      "name": "allFiles",
      "outputs": [
        {
          "internalType": "uint256[]",
          "name": "",
          "type": "uint256[]"
        },
        {
          "internalType": "string[]",
          "name": "",
          "type": "string[]"
        },
        {
          "internalType": "string[]",
          "name": "",
          "type": "string[]"
        },
        {
          "internalType": "uint256[]",
          "name": "",
          "type": "uint256[]"
        },
        {
          "internalType": "address[]",
          "name": "",
          "type": "address[]"
        },
        {
          "internalType": "uint256[]",
          "name": "",
          "type": "uint256[]"
        }
      ],
      "payable": false,
      "stateMutability": "view",
      "type": "function"
    }
  ],
  "bytecode": "0x60806040526001805534801561001457600080fd5b5061171c806100246000396000f3fe608060405234801561001057600080fd5b506004361061007d5760003560e01c80639d1187701161005b5780639d118770146100d85780639d2b5b38146100f4578063ed2e5a9714610117578063f4c714b41461014c5761007d565b80632a4fb423146100825780635a9c27241461009e57806361b8ce8c146100ba575b600080fd5b61009c6004803603610097919081019061100d565b610181565b005b6100b860048036036100b39190810190610f65565b6102e3565b005b6100c261040f565b6040516100cf91906113e7565b60405180910390f35b6100f260048036036100ed9190810190610fe4565b610415565b005b6100fc6104a3565b60405161010e9695949392919061133c565b60405180910390f35b610131600480360361012c9190810190610fe4565b610913565b60405161014396959493929190611402565b60405180910390f35b61016660048036036101619190810190610fe4565b610b4f565b60405161017896959493929190611471565b60405180910390f35b600061018c85610ce8565b9050600080828154811061019c57fe5b906000526020600020906006020160040160009054906101000a900473ffffffffffffffffffffffffffffffffffffffff1690508273ffffffffffffffffffffffffffffffffffffffff168173ffffffffffffffffffffffffffffffffffffffff16141561022d5760026000838154811061021357fe5b906000526020600020906006020160050181905550610252565b60036000838154811061023c57fe5b9060005260206000209060060201600501819055505b846000838154811061026057fe5b90600052602060002090600602016001019080519060200190610284929190610d7a565b50836000838154811061029357fe5b906000526020600020906006020160020190805190602001906102b7929190610d7a565b5042600083815481106102c657fe5b906000526020600020906006020160030181905550505050505050565b60006040518060c0016040528060015481526020018581526020018481526020014281526020018373ffffffffffffffffffffffffffffffffffffffff16815260200160018152509080600181540180825580915050906001820390600052602060002090600602016000909192909190915060008201518160000155602082015181600101908051906020019061037c929190610dfa565b506040820151816002019080519060200190610399929190610dfa565b506060820151816003015560808201518160040160006101000a81548173ffffffffffffffffffffffffffffffffffffffff021916908373ffffffffffffffffffffffffffffffffffffffff16021790555060a08201518160050155505050600160008154809291906001019190505550505050565b60015481565b600061042082610ce8565b90506000818154811061042f57fe5b90600052602060002090600602016000808201600090556001820160006104569190610e7a565b6002820160006104669190610e7a565b60038201600090556004820160006101000a81549073ffffffffffffffffffffffffffffffffffffffff0219169055600582016000905550505050565b60608060608060608060606000805490506040519080825280602002602001820160405280156104e25781602001602082028038833980820191505090505b509050606060008054905060405190808252806020026020018201604052801561052057816020015b606081526020019060019003908161050b5790505b509050606060008054905060405190808252806020026020018201604052801561055e57816020015b60608152602001906001900390816105495790505b50905060606000805490506040519080825280602002602001820160405280156105975781602001602082028038833980820191505090505b50905060606000805490506040519080825280602002602001820160405280156105d05781602001602082028038833980820191505090505b50905060606000805490506040519080825280602002602001820160405280156106095781602001602082028038833980820191505090505b50905060008090505b6000805490508110156108f2576000818154811061062c57fe5b90600052602060002090600602016000015487828151811061064a57fe5b6020026020010181815250506000818154811061066357fe5b90600052602060002090600602016001018054600181600116156101000203166002900480601f0160208091040260200160405190810160405280929190818152602001828054600181600116156101000203166002900480156107085780601f106106dd57610100808354040283529160200191610708565b820191906000526020600020905b8154815290600101906020018083116106eb57829003601f168201915b505050505086828151811061071957fe5b60200260200101819052506000818154811061073157fe5b90600052602060002090600602016002018054600181600116156101000203166002900480601f0160208091040260200160405190810160405280929190818152602001828054600181600116156101000203166002900480156107d65780601f106107ab576101008083540402835291602001916107d6565b820191906000526020600020905b8154815290600101906020018083116107b957829003601f168201915b50505050508582815181106107e757fe5b6020026020010181905250600081815481106107ff57fe5b90600052602060002090600602016003015484828151811061081d57fe5b6020026020010181815250506000818154811061083657fe5b906000526020600020906006020160040160009054906101000a900473ffffffffffffffffffffffffffffffffffffffff1683828151811061087457fe5b602002602001019073ffffffffffffffffffffffffffffffffffffffff16908173ffffffffffffffffffffffffffffffffffffffff1681525050600081815481106108bb57fe5b9060005260206000209060060201600501548282815181106108d957fe5b6020026020010181815250508080600101915050610612565b508585858585859b509b509b509b509b509b50505050505050909192939495565b600060608060008060008061092788610ce8565b90506000818154811061093657fe5b9060005260206000209060060201600001546000828154811061095557fe5b90600052602060002090600602016001016000838154811061097357fe5b90600052602060002090600602016002016000848154811061099157fe5b906000526020600020906006020160030154600085815481106109b057fe5b906000526020600020906006020160040160009054906101000a900473ffffffffffffffffffffffffffffffffffffffff16600086815481106109ef57fe5b906000526020600020906006020160050154848054600181600116156101000203166002900480601f016020809104026020016040519081016040528092919081815260200182805460018160011615610100020316600290048015610a965780601f10610a6b57610100808354040283529160200191610a96565b820191906000526020600020905b815481529060010190602001808311610a7957829003601f168201915b50505050509450838054600181600116156101000203166002900480601f016020809104026020016040519081016040528092919081815260200182805460018160011615610100020316600290048015610b325780601f10610b0757610100808354040283529160200191610b32565b820191906000526020600020905b815481529060010190602001808311610b1557829003601f168201915b505050505093509650965096509650965096505091939550919395565b60008181548110610b5c57fe5b9060005260206000209060060201600091509050806000015490806001018054600181600116156101000203166002900480601f016020809104026020016040519081016040528092919081815260200182805460018160011615610100020316600290048015610c0e5780601f10610be357610100808354040283529160200191610c0e565b820191906000526020600020905b815481529060010190602001808311610bf157829003601f168201915b505050505090806002018054600181600116156101000203166002900480601f016020809104026020016040519081016040528092919081815260200182805460018160011615610100020316600290048015610cac5780601f10610c8157610100808354040283529160200191610cac565b820191906000526020600020905b815481529060010190602001808311610c8f57829003601f168201915b5050505050908060030154908060040160009054906101000a900473ffffffffffffffffffffffffffffffffffffffff16908060050154905086565b600080600090505b600080549050811015610d39578260008281548110610d0b57fe5b9060005260206000209060060201600001541415610d2c5780915050610d75565b8080600101915050610cf0565b506040517f08c379a0000000000000000000000000000000000000000000000000000000008152600401610d6c906113c7565b60405180910390fd5b919050565b828054600181600116156101000203166002900490600052602060002090601f016020900481019282601f10610dbb57805160ff1916838001178555610de9565b82800160010185558215610de9579182015b82811115610de8578251825591602001919060010190610dcd565b5b509050610df69190610ec2565b5090565b828054600181600116156101000203166002900490600052602060002090601f016020900481019282601f10610e3b57805160ff1916838001178555610e69565b82800160010185558215610e69579182015b82811115610e68578251825591602001919060010190610e4d565b5b509050610e769190610ec2565b5090565b50805460018160011615610100020316600290046000825580601f10610ea05750610ebf565b601f016020900490600052602060002090810190610ebe9190610ec2565b5b50565b610ee491905b80821115610ee0576000816000905550600101610ec8565b5090565b90565b600081359050610ef6816116ab565b92915050565b600082601f830112610f0d57600080fd5b8135610f20610f1b8261150d565b6114e0565b91508082526020830160208301858383011115610f3c57600080fd5b610f47838284611658565b50505092915050565b600081359050610f5f816116c2565b92915050565b600080600060608486031215610f7a57600080fd5b600084013567ffffffffffffffff811115610f9457600080fd5b610fa086828701610efc565b935050602084013567ffffffffffffffff811115610fbd57600080fd5b610fc986828701610efc565b9250506040610fda86828701610ee7565b9150509250925092565b600060208284031215610ff657600080fd5b600061100484828501610f50565b91505092915050565b6000806000806080858703121561102357600080fd5b600061103187828801610f50565b945050602085013567ffffffffffffffff81111561104e57600080fd5b61105a87828801610efc565b935050604085013567ffffffffffffffff81111561107757600080fd5b61108387828801610efc565b925050606061109487828801610ee7565b91505092959194509250565b60006110ac83836110e4565b60208301905092915050565b60006110c4838361126c565b905092915050565b60006110d8838361131e565b60208301905092915050565b6110ed8161161c565b82525050565b6110fc8161161c565b82525050565b600061110d82611569565b61111781856115c7565b935061112283611539565b8060005b8381101561115357815161113a88826110a0565b9750611145836115a0565b925050600181019050611126565b5085935050505092915050565b600061116b82611574565b61117581856115d8565b93508360208202850161118785611549565b8060005b858110156111c357848403895281516111a485826110b8565b94506111af836115ad565b925060208a0199505060018101905061118b565b50829750879550505050505092915050565b60006111e08261157f565b6111ea81856115e9565b93506111f583611559565b8060005b8381101561122657815161120d88826110cc565b9750611218836115ba565b9250506001810190506111f9565b5085935050505092915050565b600061123e82611595565b611248818561160b565b9350611258818560208601611667565b6112618161169a565b840191505092915050565b60006112778261158a565b61128181856115fa565b9350611291818560208601611667565b61129a8161169a565b840191505092915050565b60006112b08261158a565b6112ba818561160b565b93506112ca818560208601611667565b6112d38161169a565b840191505092915050565b60006112eb60148361160b565b91507f46696c6520646f6573206e6f74206578697374210000000000000000000000006000830152602082019050919050565b6113278161164e565b82525050565b6113368161164e565b82525050565b600060c082019050818103600083015261135681896111d5565b9050818103602083015261136a8188611160565b9050818103604083015261137e8187611160565b9050818103606083015261139281866111d5565b905081810360808301526113a68185611102565b905081810360a08301526113ba81846111d5565b9050979650505050505050565b600060208201905081810360008301526113e0816112de565b9050919050565b60006020820190506113fc600083018461132d565b92915050565b600060c082019050611417600083018961132d565b81810360208301526114298188611233565b9050818103604083015261143d8187611233565b905061144c606083018661132d565b61145960808301856110f3565b61146660a083018461132d565b979650505050505050565b600060c082019050611486600083018961132d565b818103602083015261149881886112a5565b905081810360408301526114ac81876112a5565b90506114bb606083018661132d565b6114c860808301856110f3565b6114d560a083018461132d565b979650505050505050565b6000604051905081810181811067ffffffffffffffff8211171561150357600080fd5b8060405250919050565b600067ffffffffffffffff82111561152457600080fd5b601f19601f8301169050602081019050919050565b6000819050602082019050919050565b6000819050602082019050919050565b6000819050602082019050919050565b600081519050919050565b600081519050919050565b600081519050919050565b600081519050919050565b600081519050919050565b6000602082019050919050565b6000602082019050919050565b6000602082019050919050565b600082825260208201905092915050565b600082825260208201905092915050565b600082825260208201905092915050565b600082825260208201905092915050565b600082825260208201905092915050565b60006116278261162e565b9050919050565b600073ffffffffffffffffffffffffffffffffffffffff82169050919050565b6000819050919050565b82818337600083830152505050565b60005b8381101561168557808201518184015260208101905061166a565b83811115611694576000848401525b50505050565b6000601f19601f8301169050919050565b6116b48161161c565b81146116bf57600080fd5b50565b6116cb8161164e565b81146116d657600080fd5b5056fea365627a7a72315820e7832e3b188c391d340880d89106eb8ac4d376208fab61cd514abb7e85456d3a6c6578706572696d656e74616cf564736f6c63430005100040",
  "source": "pragma solidity >=0.4.22 <0.8.0;\r\npragma experimental ABIEncoderV2;\r\n\r\ncontract Crud {\r\n    struct File {\r\n        uint id;\r\n        string name;\r\n        string content;\r\n        uint timestamp;\r\n        address owner;\r\n        uint note;\r\n    }\r\n\r\n    File[] public files;\r\n    uint public nextId = 1;\r\n\r\n    // Create new file\r\n    function create(string memory name, string memory content, address owner) public {\r\n        files.push(File(nextId, name, content, now, owner, 1));\r\n        nextId++;\r\n    }\r\n\r\n    // Read files data passing file id\r\n    function read(uint id) view public returns(uint, string memory, string memory, uint, address, uint) {\r\n        uint i = find(id);\r\n        return(files[i].id, files[i].name, files[i].content, files[i].timestamp, files[i].owner, files[i].note);\r\n    }\r\n\r\n    // Update file\r\n    function update(uint id, string memory name, string memory content, address user) public {\r\n        uint i = find(id);\r\n        address owner = files[i].owner;\r\n\r\n        if (owner == user) {\r\n            files[i].note = 2;\r\n        }\r\n\r\n        else {\r\n            files[i].note = 3;\r\n        }\r\n\r\n        files[i].name = name;\r\n        files[i].content = content;\r\n        files[i].timestamp = now;\r\n    }\r\n\r\n    // Delete file\r\n    function destroy(uint id) public {\r\n        uint i = find(id);\r\n        delete files[i];\r\n    }\r\n\r\n    // Find file\r\n    function find(uint id) view internal returns(uint) {\r\n        for(uint i = 0; i < files.length; i++) {\r\n            if(files[i].id == id) {\r\n                return i;\r\n            }\r\n        }\r\n        revert('File does not exist!');\r\n    }\r\n\r\n    // Return a list of all files\r\n    function allFiles() view public returns(uint[] memory, string[] memory, string[] memory, uint[] memory, address[] memory, uint[] memory) {\r\n        uint[] memory ids = new uint[](files.length);\r\n        string[] memory titles = new string[](files.length);\r\n        string[] memory contents = new string[](files.length);\r\n        uint[] memory timestamps = new uint[](files.length);\r\n        address[] memory owners = new address[](files.length);\r\n        uint[] memory notes = new uint[](files.length);\r\n\r\n        for(uint i = 0; i < files.length; i++) {\r\n                ids[i] = files[i].id;\r\n                titles[i] = files[i].name;\r\n                contents[i] = files[i].content;\r\n                timestamps[i] = files[i].timestamp;\r\n                owners[i] = files[i].owner;\r\n                notes[i] = files[i].note;\r\n        }\r\n        return(ids, titles, contents, timestamps, owners, notes);\r\n    }\r\n}",
  "sourcePath": "F:\\crud_dapp\\contracts\\Crud.sol",
  "compiler": {
    "name": "solc",
    "version": "0.5.16+commit.9c3226ce.Emscripten.clang"
  },
  "schemaVersion": "3.4.4",
  "updatedAt": "2022-01-05T09:25:09.759Z",
  "networkType": "ethereum",
  "devdoc": {
    "methods": {}
  },
  "userdoc": {
    "methods": {}
  }
}